:100000000C9462000C948A000C948A000C948A0070
:100010000C948A000C948A000C948A000C948A0038
:100020000C948A000C948A000C948A000C948A0028
:100030000C948A000C948A000C948A000C948A0018
:100040000C941E010C948A000C94B3040C94F604D6
:100050000C948A000C948A000C948A000C948A00F8
:100060000C948A000C948A0008000000BE92244977
:10007000123EABAAAA2ABECDCCCC4C3E00000080DA
:10008000BEABAAAAAA3E00000000BF000000803F4D
:100090000000000000084178D3BB4387D1133D190D
:1000A0000E3CC3BD4282AD2B3E68EC8276BED98F3A
:1000B000E1A93E4C80EFFFBE01C4FF7F3F0000007E
:1000C0000000B20511241FBECFEFD8E0DEBFCDBFC8
:1000D00011E0A0E0B1E0E8E9F1E102C005900D9285
:1000E000A434B107D9F721E0A4E4B1E001C01D9226
:1000F000A73FB207E1F710E0C4ECD0E004C02297BC
:10010000FE010E94C608C23CD107C9F70E94140430
:100110000C9408060C94000040E855E260E070E0A2
:100120008DE491E00C943105CF92DF92EF92FF9233
:100130000F931F93CF93DF938EE00E94EC01BC01DD
:10014000882777FD8095982F0E940F079B01AC01AF
:1001500060E070EC8FE794E40E94740620E030E0E9
:1001600040E85FE30E940B0620E030EC42EF56ECE3
:100170000E94080820E030EC42EF56EC0E94740622
:100180000E94C8076B017C018FE00E94EC018C018A
:1001900080E10E94EC01EC0161E071E08DE491E00E
:1001A0000E94470220E038E945E855E4C701B6015E
:1001B0000E9474062FE03FEC4BE55BE30E940C06C7
:1001C0009B01AC0160E070E080E89FE30E94740650
:1001D00023E333E948E853E40E940B06AB01BC017A
:1001E00022E030E08DE491E00E94120460E171E0D1
:1001F0008DE491E00E9447024AE050E0B8018DE4AE
:1002000091E00E9407036BE171E08DE491E00E94B0
:1002100047024AE050E0BE018DE491E00E940F03E6
:1002200064EF71E080E090E0DF91CF911F910F913A
:10023000FF90EF90DF90CF900C948B011F920F9264
:100240000FB60F9211242F933F938F939F93AF93E9
:10025000BF938091450190914601A0914701B091D3
:1002600048013091440123E0230F2D3720F40196FB
:10027000A11DB11D05C026E8230F0296A11DB11DC9
:10028000209344018093450190934601A093470138
:10029000B09348018091490190914A01A0914B018E
:1002A000B0914C010196A11DB11D8093490190931D
:1002B0004A01A0934B01B0934C01BF91AF919F9124
:1002C0008F913F912F910F900FBE0F901F90189517
:1002D0003FB7F8948091490190914A01A0914B0158
:1002E000B0914C0126B5A89B05C02F3F19F001968F
:1002F000A11DB11D3FBF6627782F892F9A2F620F4E
:10030000711D811D911D42E0660F771F881F991F87
:100310004A95D1F70895CF92DF92EF92FF92CF9353
:10032000DF936B017C010E946801EB01C114D104D1
:10033000E104F10479F00E9468016C1B7D0B683EBA
:100340007340A0F381E0C81AD108E108F108C85150
:10035000DC4FECCFDF91CF91FF90EF90DF90CF900B
:100360000895789484B5826084BD84B5816084BD2D
:1003700085B5826085BD85B5816085BDEEE6F0E01E
:10038000808181608083E1E8F0E01082808182607A
:100390008083808181608083E0E8F0E080818160FB
:1003A0008083E1EBF0E0808184608083E0EBF0E02B
:1003B000808181608083EAE7F0E0808184608083CF
:1003C0008081826080838081816080838081806879
:1003D00080831092C10008958E3008F08E5087708F
:1003E0002091000190E4299F90011124822B809399
:1003F0007C0080917A00806480937A0080917A00FA
:1004000086FDFCCF809178002091790090E0922BBE
:100410000895CF92DF92EF92FF920F931F93CF93A5
:10042000DF936C017A01EB01E60EF71E00E010E0AD
:10043000CE15DF0561F06991D601ED91FC91019037
:10044000F081E02DC6010995080F191FF1CFC801F1
:10045000DF91CF911F910F91FF90EF90DF90CF90A0
:1004600008956115710581F0DB010D900020E9F719
:10047000AD0141505109461B570BDC01ED91FC9138
:100480000280F381E02D099480E090E008950C94BF
:100490003102DC01ED91FC910190F081E02D099495
:1004A0000F931F93CF93DF93EC016DE00E944902FD
:1004B0008C016AE0CE010E944902800F911FDF91FA
:1004C000CF911F910F9108958F929F92AF92BF92FB
:1004D000CF92DF92EF92FF920F931F93CF93DF9310
:1004E000CDB7DEB7A1970FB6F894DEBF0FBECDBF74
:1004F0007C01C42EE52FCB01D22E19A221E02D15AF
:1005000010F02AE0D22E8E010F5D1F4F8D2C912C02
:10051000A12CB12C6C2D7E2FA50194010E94A20864
:100520008C2DD29E80191124015011098A3014F4A7
:10053000805D01C0895CF80180832115310541058A
:10054000510521F0C22EE32FCA01E4CFB801C70143
:100550000E943102A1960FB6F894DEBF0FBECDBF48
:10056000DF91CF911F910F91FF90EF90DF90CF908F
:10057000BF90AF909F908F900895CF92DF92EF92AF
:10058000FF920F931F93CF93DF93EC016A017B01DE
:100590002115310579F4E881F9810190F081E02D90
:1005A000642FDF91CF911F910F91FF90EF90DF901B
:1005B000CF9009942A303105E9F477FF1AC06DE233
:1005C0000E9449028C0144275527BA014C195D0944
:1005D0006E097F092AE0CE010E946402800F911FFC
:1005E000DF91CF911F910F91FF90EF90DF90CF900F
:1005F00008952AE0B701A601CE01DF91CF911F91A6
:100600000F91FF90EF90DF90CF900C9464029A01CD
:10061000AB01662757FD6095762F0C94BD020F93B2
:100620001F93CF93DF93EC019A01AB01662757FD2F
:100630006095762F0E94BD028C01CE010E9450026F
:10064000800F911FDF91CF911F910F9108954F92CD
:100650005F926F927F928F929F92AF92BF92CF9252
:10066000DF92EF92FF920F931F93CF93DF93EC01F2
:100670006A017B01B22E9A01AB01C701B6010E944B
:100680006B08882319F066E271E027C02601370164
:10069000E89477F82FEF3FEF4FE75FE7C301B20130
:1006A0000E946B0881110DC02FEF3FEF4FE75FE70E
:1006B000C301B2010E94700618161CF46AE271E0D0
:1006C0000CC02FEF3FEF4FE75FE4C701B6010E9478
:1006D000BF071816ACF46EE271E0CE01DF91CF9146
:1006E0001F910F91FF90EF90DF90CF90BF90AF9050
:1006F0009F908F907F906F905F904F900C943102FD
:100700002FEF3FEF4FE75FECC701B6010E94700685
:1007100087FDE1CF20E030E0A901C701B6010E94CA
:10072000700687FF0AC06DE2CE010E9449028C016B
:10073000F7FAF094F7F8F09402C000E010E0A12C72
:1007400060E070E080E09FE3AB1441F020E030E037
:1007500040E251E40E947406A394F6CF9B01AC01E1
:10076000C701B6010E940C066B017C010E94E106E4
:100770002B013C010E940D079B01AC01C701B60192
:100780000E940B066B017C012AE0B301A201CE019D
:100790000E946402080F191FBB2039F062E371E068
:1007A000CE010E943102080F191F7B2C772041F1E6
:1007B00020E030E040E251E4C701B6010E940808A1
:1007C0006B017C010E94DC064B01AA2497FCA094DB
:1007D000BA2C2AE030E0B501A401CE010E94BD028E
:1007E000080F191FC501B4010E940F079B01AC013E
:1007F000C701B6010E940B066B017C017A94D6CF2B
:10080000C801DF91CF911F910F91FF90EF90DF9082
:10081000CF90BF90AF909F908F907F906F905F90A0
:100820004F9008950C9427030E94B1010E948C0000
:10083000CDEED4E00E9494002097E1F30E94ED04F5
:10084000F9CFFC0124853585F901E05CFF4F8081FB
:100850009181329620813181821B930B8F7399276E
:100860000895FC0184859585FC01E05CFF4F408183
:1008700051813296208131814217530741F0019016
:10088000F081E02DE80FF91F808190E008958FEF4F
:100890009FEF0895FC0184859585FC01E05CFF4F86
:1008A000408151813296208131814217530779F07E
:1008B000A081B181A80FB91F8C91208131812F5F58
:1008C0003F4F2F7333273183208390E008958FEFBC
:1008D0009FEF0895FC0181A1882329F0A489B5899F
:1008E0008C9186FFFBCF11A20895CF93DF93FC017B
:1008F00026853785D901A05CBF4F8D919C911197BA
:1009000001968F739927E901CE5BDF4F48815981AA
:1009100084179507D9F30D90BC91A02DA20FB31F9A
:100920006C93A685B785A05CBF4F11969C938E9360
:10093000A689B7892C9181E090E0078C02C0880FCE
:10094000991F0A94E2F7282B2C9381E081A3048855
:10095000F589E02D80818064808381E090E0DF91E3
:10096000CF91089508951F920F920FB60F92112400
:100970002F933F934F938F939F93EF93FF93809188
:10098000C00082FD1CC04091C6008091F30190918F
:10099000F40101968F7399272091F5013091F601AA
:1009A0008217930771F0E091F301F091F401ED5497
:1009B000FE4F40839093F4018093F30102C0809135
:1009C000C600FF91EF919F918F914F913F912F9191
:1009D0000F900FBE0F901F9018958DE491E00E942C
:1009E0002104892B11F00C94B20408951F920F92E8
:1009F0000FB60F9211242F933F938F939F93EF93F2
:100A0000FF932091AF013091B0018091B10190919D
:100A1000B2012817390731F48091C1008F7D80938E
:100A2000C10014C0E091B101F091B201E159FE4F53
:100A300020818091B1019091B20101968F73992725
:100A40009093B2018093B1012093C600FF91EF9182
:100A50009F918F913F912F910F900FBE0F901F90FC
:100A60001895CF92DF92EF92FF92CF93DF93EC0134
:100A70006A017B01411581EE580761057105F9F0A6
:100A8000EC89FD8981E090E008A002C0880F991FE1
:100A90000A94E2F7808360E079E08DE390E0A701BB
:100AA00096010E94A2082150310941095109569529
:100AB000479537952795211580E1380798F0EC89FF
:100AC000FD89108260E874E88EE190E0A70196014C
:100AD0000E94A208215031094109510956954795B4
:100AE00037952795E889F9893083EA89FB8920833E
:100AF00019A2EE89FF89408181E090E09C010C8C75
:100B000002C0220F331F0A94E2F7422B4083EE8982
:100B1000FF8940819C010D8C02C0220F331F0A9473
:100B2000E2F7422B4083EE89FF8940819C010E8CC5
:100B300002C0220F331F0A94E2F7422B4083EE8952
:100B4000FF8920810F8C02C0880F991F0A94E2F759
:100B5000809582238083DF91CF91FF90EF90DF908B
:100B6000CF9008951092500110924F0188EE93E0BB
:100B7000A0E0B0E08093510190935201A093530103
:100B8000B093540188E391E090934E0180934D011E
:100B900083EB91E090935A01809359018FE691E0A5
:100BA00090935C0180935B0185EC90E090935E01F3
:100BB00080935D0184EC90E09093600180935F01ED
:100BC00080EC90E0909362018093610181EC90E071
:100BD000909364018093630182EC90E090936601AE
:100BE0008093650186EC90E09093680180936701A3
:100BF00084E08093690183E080936A0187E08093B9
:100C00006B0185E080936C0181E080936D01089514
:100C1000F8940C94CA085058BB27AA270ED075C167
:100C200066D130F06BD120F031F49F3F11F41EF407
:100C30005BC10EF4E095E7FB51C1E92F77D180F35A
:100C4000BA17620773078407950718F071F49EF5C9
:100C50008FC10EF4E0950B2EBA2FA02D0B01B90118
:100C600090010C01CA01A0011124FF27591B99F022
:100C7000593F50F4503E68F11A16F040A22F232F2E
:100C8000342F4427585FF3CF469537952795A7957E
:100C9000F0405395C9F77EF41F16BA0B620B730B25
:100CA000840BBAF09150A1F0FF0FBB1F661F771F96
:100CB000881FC2F70EC0BA0F621F731F841F48F44B
:100CC000879577956795B795F7959E3F08F0B3CFD1
:100CD0009395880F08F09927EE0F979587950895BB
:100CE000D9D008F481E008950CD00FC107D140F0AD
:100CF000FED030F021F45F3F19F0F0C0511139C13E
:100D0000F3C014D198F39923C9F35523B1F3951B7C
:100D1000550BBB27AA2762177307840738F09F5F1C
:100D20005F4F220F331F441FAA1FA9F333D00E2E8B
:100D30003AF0E0E830D091505040E695001CCAF7F8
:100D400029D0FE2F27D0660F771F881FBB1F2617BD
:100D500037074807AB07B0E809F0BB0B802DBF0190
:100D6000FF2793585F4F2AF09E3F510568F0B6C0A9
:100D700000C15F3FECF3983EDCF38695779567956D
:100D8000B795F7959F5FC9F7880F911D9695879541
:100D900097F90895E1E0660F771F881FBB1F621760
:100DA00073078407BA0720F0621B730B840BBA0B1E
:100DB000EE1F88F7E095089504D06894B111D9C06A
:100DC0000895BCD088F09F5790F0B92F9927B7515C
:100DD000A0F0D1F0660F771F881F991F1AF0BA95FF
:100DE000C9F712C0B13081F0C3D0B1E00895C0C0DE
:100DF000672F782F8827B85F39F0B93FCCF38695F5
:100E000077956795B395D9F73EF490958095709551
:100E100061957F4F8F4F9F4F0895E89409C097FBCE
:100E20003EF490958095709561957F4F8F4F9F4FC1
:100E30009923A9F0F92F96E9BB279395F695879505
:100E400077956795B795F111F8CFFAF4BB0F11F4C8
:100E500060FF1BC06F5F7F4F8F4F9F4F16C088236F
:100E600011F096E911C0772321F09EE8872F762FA5
:100E700005C0662371F096E8862F70E060E02AF0E6
:100E80009A95660F771F881FDAF7880F96958795D2
:100E900097F90895990F0008550FAA0BE0E8FEEFA7
:100EA00016161706E807F907C0F012161306E4072E
:100EB000F50798F0621B730B840B950B39F40A2627
:100EC00061F0232B242B252B21F408950A2609F405
:100ED000A140A6958FEF811D811D089597F99F6709
:100EE00080E870E060E008959FEF80EC08950024B2
:100EF0000A941616170618060906089500240A947F
:100F000012161306140605060895092E0394000C04
:100F100011F4882352F0BB0F40F4BF2B11F460FF93
:100F200004C06F5F7F4F8F4F9F4F089557FD9058BC
:100F3000440F551F59F05F3F71F04795880F97FB9D
:100F4000991F61F09F3F79F0879508951216130657
:100F50001406551FF2CF4695F1DF08C01616170686
:100F60001806991FF1CF86957105610508940895BB
:100F7000E894BB2766277727CB0197F908958ADF86
:100F800008F48FEF08950EF0AAC0AECF6894A6CFF4
:100F9000D5DFC8F39923D1F3C6F3DF93CF931F9323
:100FA0000F93FF92C92FDD2788232AF02197660F20
:100FB000771F881FDAF720E030E040E85FEB9FE31F
:100FC000883920F0803E30F021968F7725DEE8E6E4
:100FD000F0E003C021DEE5E9F0E08FD08B01BE0137
:100FE000EC01FB2E6F5771097595771F880B990BD4
:100FF00016DF28E132E741E35FE316D0AF2D980119
:10100000AE01FF900F911F91CF91DF9116DE7DCF42
:101010000BD07BCF6CDF28F071DF18F0952309F03F
:101020005DCF62CF1124A5CF81DFA0F3959FD1F3CF
:10103000950F50E0551F629FF001729FBB27F00D86
:10104000B11D639FAA27F00DB11DAA1F649F6627DB
:10105000B00DA11D661F829F2227B00DA11D621F2A
:10106000739FB00DA11D621F839FA00D611D221FE4
:10107000749F3327A00D611D231F849F600D211DC8
:10108000822F762F6A2F11249F5750408AF0E1F06B
:1010900088234AF0EE0FFF1FBB1F661F771F881FB4
:1010A00091505040A9F79E3F510570F017CF61CF86
:1010B0005F3FECF3983EDCF3869577956795B7959F
:1010C000F795E7959F5FC1F7FE2B880F911D9695C9
:1010D000879597F90895DEDE880B990B08959F3F59
:1010E00031F0915020F4879577956795B795880FE3
:1010F000911D9695879597F90895DF93CF931F9348
:101100000F93FF92EF92DF927B018C01689405C0F0
:10111000DA2EEF0189DFFE01E894A5912591359142
:1011200045915591AEF3EF0188DDFE019701A801CD
:10113000DA9479F7DF90EF90FF900F911F91CF91A4
:10114000DF910895A1E21A2EAA1BBB1BFD010DC061
:10115000AA1FBB1FEE1FFF1FA217B307E407F50767
:1011600020F0A21BB30BE40BF50B661F771F881F43
:10117000991F1A9469F760957095809590959B01D9
:10118000AC01BD01CF010895EE0FFF1F0590F49152
:08119000E02D0994F894FFCF53
:101198000174656D7065726174757265203D20001B
:1011A8002C206C69676874203D20002C20736F75B3
:1011B8006E64203D20006E616E00696E66006F7679
:1011C80066002E00000000007504090221044A048C
:0411D80031046A0470
:00000001FF
